:0A00000031C0FECFFDCFFCCFFBCFD7
:10000A00FACFF9CFF8CFF7CFF6CFF5CFF4CFF3CFBA
:10001A00F2CFF1CFF0CFEFCFEECFEDCFECCFEBCFEA
:10002A001027E80364000A00010000100001100014
:10003A0001004144433D005445473D00560001003C
:10004A002D4E414E00494E46000080C00100040179
:10005A0048000200080154000000F894EE27ECBBA7
:10006A00F1E0FBBFEBBFE5BF8DE0A2E0BB27ED935C
:10007A008A95E9F780E092E0A0E6ED930197E9F727
:10008A00E6E5F0E085919591009761F0A591B5912B
:10009A0005901590BF01F00105900D920197E1F7C7
:1000AA00FB01F0CFEFE5EDBFE2E0EEBFC0EED0E03E
:1000BA000DC0AA93E881E7B988E28A95F1F7369AE2
:1000CA00349BFECF349AE4B1F5B1A4C1E0E0EABBB7
:1000DA00EBBBE7BBE8BBE4BBE5BBE1BBE2BBE3BF11
:1000EA00E2BFECBFEFBDEEBDEDBDECBDE7BDE6BDC9
:1000FA00EBBDEABDE9BDE8BDE2BDE5BDE4BDE3BDDA
:10010A00E9BFE5BFE4BFEAB9E0E8E8B9E0E0E7B98A
:10011A00E4E8E6B9E0E1E0BFE0E0EDB9E6BFA0E17E
:10012A0050D1C6D1A0E002D1ACE3B0E038D1A0E012
:10013A00C0DF2F01E6E0EA93A0E0BDD1E4D3B8D155
:10014A00A0EFB0E037D0A0EFB0E01BD1B1D1A1E071
:10015A00EDD0A1E4B0E023D1E6E0EA93A1E0ABD18F
:10016A00A0E0B0E080EA90E4FFD2DF01CB01E0E05A
:10017A00F0E060E874E446D3E0930001F0930101F3
:10018A006093020170930301BED3E1E0EA93A0EE0B
:10019A00B0E010D0A0EEB0E0F4D0EDE0EA93A1E038
:1001AA00C5D0A6E4B0E0FBD0A4EFB1E0DDD1CBD05E
:1001BA00B8CFFFCF85D12497E0E0E883E983EA83CB
:1001CA00EFE3EB83B7D3EB85FC85EF3FAFEFFA079D
:1001DA0029F479D1AAE4B0E01FD17AC0EF3FAFE7A2
:1001EA00FA0729F470D1ABE4B0E016D171C0AC853E
:1001FA00AA2332F46DD1C2D170D174D1EDE2EC935D
:10020A00A885A73010F0E6E0E8871885E12F11509D
:10021A00E03021F06ED172D177D1F8CF7AD154D2B1
:10022A005CD110E0E0E0F0E060E87FE36DD171D1ED
:10023A002ED360F05ED176D167D11F5F173228F0D6
:10024A0042D1AFE4B0E0E8D043C0F1CF103021F49E
:10025A0049D1E0E3EC931EC0E12F1150E030D1F018
:10026A0048D14CD1A0E0B0E080E09FE32DD2DF017D
:10027A00CB010ED149D14DD1C5D2B3D10E2F32D136
:10028A0057D137D12CD3E6D16FD258D146D315D214
:10029A0024D1E2CFE885E030B9F024D1EEE2EC9344
:1002AA00E885E150E887EF5F79F048D13BD115D175
:1002BA000FD197D10E2F16D13BD140D110D3CAD12D
:1002CA002CD3FBD10AD1ECCFAE81BF81E0E0EC9315
:1002DA0034D32D960895AA93E881E07111F0AF9A6C
:1002EA0001C0AF98E881E07211F0AE9A01C0AE98F1
:1002FA00E881E07411F0AC9A01C0AC98E881E0782A
:10030A0011F0AA9A01C0AA981ED1AD9A1CD1AD9833
:10031A001AD180C0AA93A881DEDFE881E295E8833A
:10032A00A881D9DF88EC8A95F1F774C0AA93E8818D
:10033A00F0E0E85FFE4FE081A981AE0FEBDF798044
:10034A00688022960895A2E002D1ACE0E3DFA1E042
:10035A00FED0E0E06E2E7E2E0895AA93A881AA30E0
:10036A0011F0791440F0A4D06394A62DDFDFA881A0
:10037A00AA3009F44FC07394A99AA881CBDFA9982F
:10038A0049C09ED01A93A981BA81ED91A983BA83F3
:10039A001E2FE03019F0A12FE0DFF5CF0FC090D06B
:1003AA001A93E981FA813196E983FA833197E491C4
:1003BA001E2FE03019F0A12FD0DFF3CF188123963A
:1003CA000895AA93A79AA69AA49AA29AA59AA19AD4
:1003DA00A39AAD98A998AB989880E881E058E093E1
:1003EA000A01E881E054E0930B01A4E1B0E0BCD03B
:1003FA00B2D0B1D0B0D0A0E26EDF8CE291E001972A
:10040A00F1F7A8E287DFA4E085DFA5E883DFA6E0AD
:10041A0081DF99DF2196089553D0E991F991A99145
:10042A00B991CD0105900D920020E1F7FC010895E4
:10043A006FD27B816A81F981E88177FB770F67FD4B
:10044A007160972F9E5781F078F0983190F4AA271F
:10045A00BB27882708948795B795A7959A95D1F7CA
:10046A00EA23FB23682305C0E8947727EE27FF27B2
:10047A0066276F77769508F4606877F9A991B9913C
:10048A0089919991EA17FB076807790797FB0895FD
:10049A003FD22FD2CDDF32D211F464D007C0EEF7AB
:1004AA0061D0A0E0B0E080E89FE307D124960895E8
:1004BA00E0E0EA9308953ADFF20111D2CBD0089531
:1004CA00BA93AA930895EE81FF81FA93EA93089565
:1004DA00E985FA856B857C850895E987FA876B87B4
:1004EA007C870895AE81BF811196AE83BF83119731
:1004FA000895AA81BB818C819D810895EDECFCEC65
:10050A006CEC7DE331D10895EA83FB836C837D83B0
:10051A000895EA81FB816C817D81A985BA858B85E5
:10052A009C850895E0E0F0E060E271E41DD1089551
:10053A00E02FE05DEC93E02FF0E00895A985BA85FD
:10054A008B859C85089584E18A95F1F70895E2DE0A
:10055A00A3E0B0E009C0A0E3BEDE8CE291E001971F
:10056A00F1F70895C1D10895109639F0A89588EB4E
:10057A009BE00197F1F71197C9F70895309760400A
:10058A00704009F070580895552342F4503811F418
:10059A00E0FF04C03196691F791F6BF050E85727B6
:1005AA0011F45F93CFC05F3F31F0660F000C57958F
:1005BA006795752F08955F9300200AF0CFC0C8C0D1
:1005CA0050E8192E1522880F991F9527550F8795E0
:1005DA0050E8072E0522660F771F7527550F679576
:1005EA000895689401C0E8945F93F2DF703818F0B8
:1005FA007F3F08F4A7C056E1571BAAF4519558301B
:10060A000EF4593030F0EFEFFFEF6FEF7FE777F935
:10061A001AC077275523B9F0EE0FFF1F661F771F01
:10062A005A95D1F710C07727583028F0EF2FF62FB8
:10063A00672F5850F9CF552331F076956795F7957E
:10064A00E7955A95D1F700200AF441D15F910895B0
:10065A00689401C0E894309760407040B1F000247B
:10066A0026F0772312F4009432D1172E7EE111205E
:10067A0032F07A95EE0FFF1F661F111CF9CFEF2F8C
:10068A00F62F612D5F938ADF5F9108954F93AF0133
:10069A00FD01DA01AB01BC01CA01402D012C142E67
:1006AA004F910895EA0FFB1F681F0895E095F09592
:1006BA006095EF5FFF4F6F4F08955F9381DF90382A
:1006CA0071F150E8152604C05F937ADF903839F14A
:1006DA00703821F1572F591B2BF112F4D7DFFACFBB
:1006EA00583118F0AA27BB278827583028F0AB2F93
:1006FA00B82F88275850F9CF552329F08695B795F2
:10070A00A7955A95D9F7502D512572F0CBDF38F4B9
:10071A006795F795E795739513F420C0B7DF3EDF29
:10072A005F910895D8F7FBCFEA1BFB0B680B51F0DA
:10073A0010F40094BBDF662392F3EE0FFF1F661FCF
:10074A007A95CBF7EE27FF27662777275F910895DB
:10075A00EFEFFFEF6FE77FEF5F910895EFEFFFEFA6
:10076A006FE77FE75F9108955F932ADF703851F34F
:10077A00903841F301240894791F23F41CF30020D4
:10078A003AF3ECCF0F921F932F933F934F93112776
:10079A0022279927689FA0018F9F302D410D591F4D
:1007AA006B9F300D411D591F8E9F27D0BF9F25D0AB
:1007BA006A9F23D0BE9F1DD0AF9F1BD0AE9F110D45
:1007CA00291F391F491F591FE32FF42F652F522F55
:1007DA004F913F912F911F910F9066232AF0550F49
:1007EA00EE1FFF1F661F02C073954BF2CDDE5F91AD
:1007FA000895100D211D391F02C0200D311D491FFA
:10080A00591F08955F93DCDE703821F411200AF431
:10081A009FCFA4CF903809F495CF01240894970B61
:10082A001BF4D4F30020F3CF792F1F932F933F9318
:10083A004F9311241127222733274427552790E263
:10084A00AE17BF078607410730F0AE1BBF0B860BFA
:10085A00410B089401C08894551F221F331F111C95
:10086A00AA1FBB1F881F441F9A9551F7F901612DD2
:10087A004F913F912F911F91662332F0550FEE1F32
:10088A00FF1F661F7A9543F27FDE5F9108959923D1
:10089A009AF0772342F0971748F029F4AE17BF076A
:1008AA00860720F031F098948894089598940894D3
:1008BA0008951894889408957723C2F7971798F3A0
:1008CA00A9F7EA17FB07680788F399F3ECCFF095C5
:1008DA0060957095E195FF4F6F4F7F4F08956F2F89
:1008EA00660F660B762F0895E881F9816A817B810C
:1008FA000895A881B9818A819B810895E883F98343
:10090A006A837B8308957A936A93FA93EA930895A4
:10091A009A938A93BA93AA930895182E862F612DD3
:10092A00192E972F712D1B2EBF2FF12D1A2EAE2F98
:10093A00E12D08951A930A9308951981088108955B
:00000001FF
