:0E00000027C0FECFFDCFFCCFFBCFFACFF9CF4C
:10000E00F8CFF7CFF6CFF5CFF4CFF3CFF2CFF1CFC6
:10001E00F0CFEFCFEECFEDCFECCFEBCF5072616BD9
:10002E0074696B756D00466973696B6120496E73F7
:10003E007472756D656E000080C00200E0004600AF
:10004E000000F894EE27ECBBF1E0FBBFEBBFE5BF81
:10005E008DE0A2E0BB27ED938A95E9F780E092E070
:10006E00A0E6ED930197E9F7E8E4F0E0859195912C
:10007E00009761F0A591B59105901590BF01F00123
:10008E0005900D920197E1F7FB01F0CFEFE5EDBF83
:10009E00E2E0EEBFC0EED0E000C0E0E0EABBEBBBBA
:1000AE00E7BBE8BBE4BBE5BBE1BBE2BBE3BFE2BF42
:1000BE00ECBFEFBDEEBDEDBDECBDE7BDE6BDEBBDEE
:1000CE00EABDE9BDE8BDE2BDE5BDE4BDE3BDE9BF06
:1000DE00E5BFE4BFEAB9E0E8E8B9E0E0E0BFE6B9C1
:1000EE00EDB9E6BFA0E169D0E0E0EA93A0E026D04A
:1000FE00AAE2B0E04FD0E0E0EA93A1E01FD0A4E383
:10010E00B0E048D0F1CFFFCFAA93E8B3EF70AE2F97
:10011E00E881E07FEA2BE8BB7AD0C29A78D0C29809
:10012E0076D073C0AA93A881EFDFE881E295E883C9
:10013E00A881EADF88EC8A95F1F767C0AA93E88177
:10014E00F0E0E052FF4FE081A981AE0FEBDF598066
:10015E00488022960895A2E05ED0ACE0E3DFA1E0F5
:10016E005AD0E0E04E2E5E2E0895AA93A881AA30B2
:10017E0011F0571448F0E0E0EA934394A42DDEDF2B
:10018E00A881AA3009F441C05394C09AA881CADF4D
:10019E00C0983BC0BA93AA931A93E981FA8131961B
:1001AE00E983FA833197E4911E2FE03019F0A12FE5
:1001BE00DCDFF3CF188123960895AA93E7B3E06F9F
:1001CE00E7BBBA9AB89AB99AC298C098C198788083
:1001DE00E881E058E093E200E881E054E093E30028
:1001EE00A4E1B0E023D01BD01AD019D0A0E28CDF4E
:1001FE008CE291E00197F1F7A8E294DFA4E092DFA0
:10020E00A5E890DFA6E08EDFA6DF2196089584E1B3
:10021E008A95F1F7089586DFA3E0B0E007C0A0E36A
:10022E0073DF8CE291E00197F1F70895109639F0A3
:10023E00A89588EB9BE00197F1F71197C9F7089500
:00000001FF
